{
  "_format": "hh-sol-artifact-1",
  "contractName": "BeamUp",
  "sourceName": "contracts/BeamUp.sol",
  "abi": [
    {
      "inputs": [],
      "stateMutability": "nonpayable",
      "type": "constructor"
    },
    {
      "anonymous": false,
      "inputs": [
        {
          "indexed": true,
          "internalType": "address",
          "name": "from",
          "type": "address"
        },
        {
          "indexed": true,
          "internalType": "address",
          "name": "to",
          "type": "address"
        },
        {
          "indexed": false,
          "internalType": "uint256",
          "name": "amount",
          "type": "uint256"
        }
      ],
      "name": "TipSent",
      "type": "event"
    },
    {
      "anonymous": false,
      "inputs": [
        {
          "indexed": true,
          "internalType": "address",
          "name": "creator",
          "type": "address"
        },
        {
          "indexed": false,
          "internalType": "string",
          "name": "ipfsCID",
          "type": "string"
        },
        {
          "indexed": false,
          "internalType": "string",
          "name": "title",
          "type": "string"
        }
      ],
      "name": "WorkPublished",
      "type": "event"
    },
    {
      "inputs": [],
      "name": "commissionPercent",
      "outputs": [
        {
          "internalType": "uint256",
          "name": "",
          "type": "uint256"
        }
      ],
      "stateMutability": "view",
      "type": "function"
    },
    {
      "inputs": [],
      "name": "getAllWorks",
      "outputs": [
        {
          "components": [
            {
              "internalType": "address payable",
              "name": "creator",
              "type": "address"
            },
            {
              "internalType": "string",
              "name": "ipfsCID",
              "type": "string"
            },
            {
              "internalType": "string",
              "name": "title",
              "type": "string"
            },
            {
              "internalType": "string",
              "name": "category",
              "type": "string"
            },
            {
              "internalType": "uint256",
              "name": "totalTips",
              "type": "uint256"
            },
            {
              "internalType": "uint256",
              "name": "timestamp",
              "type": "uint256"
            }
          ],
          "internalType": "struct BeamUp.Work[]",
          "name": "",
          "type": "tuple[]"
        }
      ],
      "stateMutability": "view",
      "type": "function"
    },
    {
      "inputs": [],
      "name": "owner",
      "outputs": [
        {
          "internalType": "address",
          "name": "",
          "type": "address"
        }
      ],
      "stateMutability": "view",
      "type": "function"
    },
    {
      "inputs": [],
      "name": "platformFee",
      "outputs": [
        {
          "internalType": "uint256",
          "name": "",
          "type": "uint256"
        }
      ],
      "stateMutability": "view",
      "type": "function"
    },
    {
      "inputs": [
        {
          "internalType": "string",
          "name": "_ipfsCID",
          "type": "string"
        },
        {
          "internalType": "string",
          "name": "_title",
          "type": "string"
        },
        {
          "internalType": "string",
          "name": "_category",
          "type": "string"
        }
      ],
      "name": "publishWork",
      "outputs": [],
      "stateMutability": "payable",
      "type": "function"
    },
    {
      "inputs": [
        {
          "internalType": "uint256",
          "name": "_workIndex",
          "type": "uint256"
        }
      ],
      "name": "tipArtist",
      "outputs": [],
      "stateMutability": "payable",
      "type": "function"
    },
    {
      "inputs": [],
      "name": "withdrawFees",
      "outputs": [],
      "stateMutability": "nonpayable",
      "type": "function"
    },
    {
      "inputs": [
        {
          "internalType": "uint256",
          "name": "",
          "type": "uint256"
        }
      ],
      "name": "works",
      "outputs": [
        {
          "internalType": "address payable",
          "name": "creator",
          "type": "address"
        },
        {
          "internalType": "string",
          "name": "ipfsCID",
          "type": "string"
        },
        {
          "internalType": "string",
          "name": "title",
          "type": "string"
        },
        {
          "internalType": "string",
          "name": "category",
          "type": "string"
        },
        {
          "internalType": "uint256",
          "name": "totalTips",
          "type": "uint256"
        },
        {
          "internalType": "uint256",
          "name": "timestamp",
          "type": "uint256"
        }
      ],
      "stateMutability": "view",
      "type": "function"
    }
  ],
  "bytecode": "0x6080604052655af3107a4000600155600560025534801561001f57600080fd5b50336000806101000a81548173ffffffffffffffffffffffffffffffffffffffff021916908373ffffffffffffffffffffffffffffffffffffffff1602179055506114ce8061006f6000396000f3fe60806040526004361061007b5760003560e01c8063790b85ab1161004e578063790b85ab146101095780638da5cb5b14610134578063c66e1dd51461015f578063d37f9750146101a15761007b565b80631c369c151461008057806326232a2e1461009c578063476343ee146100c757806377d3550b146100de575b600080fd5b61009a60048036038101906100959190610b92565b6101bd565b005b3480156100a857600080fd5b506100b161033d565b6040516100be9190610c52565b60405180910390f35b3480156100d357600080fd5b506100dc610343565b005b3480156100ea57600080fd5b506100f3610404565b6040516101009190610c52565b60405180910390f35b34801561011557600080fd5b5061011e61040a565b60405161012b9190610e95565b60405180910390f35b34801561014057600080fd5b50610149610689565b6040516101569190610ed8565b60405180910390f35b34801561016b57600080fd5b5061018660048036038101906101819190610f1f565b6106ad565b60405161019896959493929190610fa5565b60405180910390f35b6101bb60048036038101906101b69190610f1f565b6108b1565b005b6001543410156101cc57600080fd5b60008351116101da57600080fd5b60036040518060c001604052803373ffffffffffffffffffffffffffffffffffffffff1681526020018581526020018481526020018381526020016000815260200142815250908060018154018082558091505060019003906000526020600020906006020160009091909190915060008201518160000160006101000a81548173ffffffffffffffffffffffffffffffffffffffff021916908373ffffffffffffffffffffffffffffffffffffffff16021790555060208201518160010190816102a59190611227565b5060408201518160020190816102bb9190611227565b5060608201518160030190816102d19190611227565b506080820151816004015560a0820151816005015550503373ffffffffffffffffffffffffffffffffffffffff167f4baa7d799f63bacd9e887335a97d54e68f93148428a7c3761504bab2e9ea43f184846040516103309291906112f9565b60405180910390a2505050565b60015481565b60008054906101000a900473ffffffffffffffffffffffffffffffffffffffff1673ffffffffffffffffffffffffffffffffffffffff163373ffffffffffffffffffffffffffffffffffffffff161461039b57600080fd5b60008054906101000a900473ffffffffffffffffffffffffffffffffffffffff1673ffffffffffffffffffffffffffffffffffffffff166108fc479081150290604051600060405180830381858888f19350505050158015610401573d6000803e3d6000fd5b50565b60025481565b60606003805480602002602001604051908101604052809291908181526020016000905b8282101561068057838290600052602060002090600602016040518060c00160405290816000820160009054906101000a900473ffffffffffffffffffffffffffffffffffffffff1673ffffffffffffffffffffffffffffffffffffffff1673ffffffffffffffffffffffffffffffffffffffff1681526020016001820180546104b79061104a565b80601f01602080910402602001604051908101604052809291908181526020018280546104e39061104a565b80156105305780601f1061050557610100808354040283529160200191610530565b820191906000526020600020905b81548152906001019060200180831161051357829003601f168201915b505050505081526020016002820180546105499061104a565b80601f01602080910402602001604051908101604052809291908181526020018280546105759061104a565b80156105c25780601f10610597576101008083540402835291602001916105c2565b820191906000526020600020905b8154815290600101906020018083116105a557829003601f168201915b505050505081526020016003820180546105db9061104a565b80601f01602080910402602001604051908101604052809291908181526020018280546106079061104a565b80156106545780601f1061062957610100808354040283529160200191610654565b820191906000526020600020905b81548152906001019060200180831161063757829003601f168201915b50505050508152602001600482015481526020016005820154815250508152602001906001019061042e565b50505050905090565b60008054906101000a900473ffffffffffffffffffffffffffffffffffffffff1681565b600381815481106106bd57600080fd5b90600052602060002090600602016000915090508060000160009054906101000a900473ffffffffffffffffffffffffffffffffffffffff16908060010180546107069061104a565b80601f01602080910402602001604051908101604052809291908181526020018280546107329061104a565b801561077f5780601f106107545761010080835404028352916020019161077f565b820191906000526020600020905b81548152906001019060200180831161076257829003601f168201915b5050505050908060020180546107949061104a565b80601f01602080910402602001604051908101604052809291908181526020018280546107c09061104a565b801561080d5780601f106107e25761010080835404028352916020019161080d565b820191906000526020600020905b8154815290600101906020018083116107f057829003601f168201915b5050505050908060030180546108229061104a565b80601f016020809104026020016040519081016040528092919081815260200182805461084e9061104a565b801561089b5780601f106108705761010080835404028352916020019161089b565b820191906000526020600020905b81548152906001019060200180831161087e57829003601f168201915b5050505050908060040154908060050154905086565b600034116108be57600080fd5b60038054905081106108cf57600080fd5b6000600382815481106108e5576108e4611330565b5b906000526020600020906006020190506000606460025434610907919061138e565b61091191906113ff565b9050600081346109219190611430565b90508260000160009054906101000a900473ffffffffffffffffffffffffffffffffffffffff1673ffffffffffffffffffffffffffffffffffffffff166108fc829081150290604051600060405180830381858888f1935050505015801561098d573d6000803e3d6000fd5b50808360040160008282546109a29190611464565b925050819055508260000160009054906101000a900473ffffffffffffffffffffffffffffffffffffffff1673ffffffffffffffffffffffffffffffffffffffff163373ffffffffffffffffffffffffffffffffffffffff167f944676cc66b56faa2e31ce8f94f620789dda8488308d59491fabc492867d4cec34604051610a2a9190610c52565b60405180910390a350505050565b6000604051905090565b600080fd5b600080fd5b600080fd5b600080fd5b6000601f19601f8301169050919050565b7f4e487b7100000000000000000000000000000000000000000000000000000000600052604160045260246000fd5b610a9f82610a56565b810181811067ffffffffffffffff82111715610abe57610abd610a67565b5b80604052505050565b6000610ad1610a38565b9050610add8282610a96565b919050565b600067ffffffffffffffff821115610afd57610afc610a67565b5b610b0682610a56565b9050602081019050919050565b82818337600083830152505050565b6000610b35610b3084610ae2565b610ac7565b905082815260208101848484011115610b5157610b50610a51565b5b610b5c848285610b13565b509392505050565b600082601f830112610b7957610b78610a4c565b5b8135610b89848260208601610b22565b91505092915050565b600080600060608486031215610bab57610baa610a42565b5b600084013567ffffffffffffffff811115610bc957610bc8610a47565b5b610bd586828701610b64565b935050602084013567ffffffffffffffff811115610bf657610bf5610a47565b5b610c0286828701610b64565b925050604084013567ffffffffffffffff811115610c2357610c22610a47565b5b610c2f86828701610b64565b9150509250925092565b6000819050919050565b610c4c81610c39565b82525050565b6000602082019050610c676000830184610c43565b92915050565b600081519050919050565b600082825260208201905092915050565b6000819050602082019050919050565b600073ffffffffffffffffffffffffffffffffffffffff82169050919050565b6000610cc482610c99565b9050919050565b610cd481610cb9565b82525050565b600081519050919050565b600082825260208201905092915050565b60005b83811015610d14578082015181840152602081019050610cf9565b60008484015250505050565b6000610d2b82610cda565b610d358185610ce5565b9350610d45818560208601610cf6565b610d4e81610a56565b840191505092915050565b610d6281610c39565b82525050565b600060c083016000830151610d806000860182610ccb565b5060208301518482036020860152610d988282610d20565b91505060408301518482036040860152610db28282610d20565b91505060608301518482036060860152610dcc8282610d20565b9150506080830151610de16080860182610d59565b5060a0830151610df460a0860182610d59565b508091505092915050565b6000610e0b8383610d68565b905092915050565b6000602082019050919050565b6000610e2b82610c6d565b610e358185610c78565b935083602082028501610e4785610c89565b8060005b85811015610e835784840389528151610e648582610dff565b9450610e6f83610e13565b925060208a01995050600181019050610e4b565b50829750879550505050505092915050565b60006020820190508181036000830152610eaf8184610e20565b905092915050565b6000610ec282610c99565b9050919050565b610ed281610eb7565b82525050565b6000602082019050610eed6000830184610ec9565b92915050565b610efc81610c39565b8114610f0757600080fd5b50565b600081359050610f1981610ef3565b92915050565b600060208284031215610f3557610f34610a42565b5b6000610f4384828501610f0a565b91505092915050565b610f5581610cb9565b82525050565b600082825260208201905092915050565b6000610f7782610cda565b610f818185610f5b565b9350610f91818560208601610cf6565b610f9a81610a56565b840191505092915050565b600060c082019050610fba6000830189610f4c565b8181036020830152610fcc8188610f6c565b90508181036040830152610fe08187610f6c565b90508181036060830152610ff48186610f6c565b90506110036080830185610c43565b61101060a0830184610c43565b979650505050505050565b7f4e487b7100000000000000000000000000000000000000000000000000000000600052602260045260246000fd5b6000600282049050600182168061106257607f821691505b6020821081036110755761107461101b565b5b50919050565b60008190508160005260206000209050919050565b60006020601f8301049050919050565b600082821b905092915050565b6000600883026110dd7fffffffffffffffffffffffffffffffffffffffffffffffffffffffffffffffff826110a0565b6110e786836110a0565b95508019841693508086168417925050509392505050565b6000819050919050565b600061112461111f61111a84610c39565b6110ff565b610c39565b9050919050565b6000819050919050565b61113e83611109565b61115261114a8261112b565b8484546110ad565b825550505050565b600090565b61116761115a565b611172818484611135565b505050565b5b818110156111965761118b60008261115f565b600181019050611178565b5050565b601f8211156111db576111ac8161107b565b6111b584611090565b810160208510156111c4578190505b6111d86111d085611090565b830182611177565b50505b505050565b600082821c905092915050565b60006111fe600019846008026111e0565b1980831691505092915050565b600061121783836111ed565b9150826002028217905092915050565b61123082610cda565b67ffffffffffffffff81111561124957611248610a67565b5b611253825461104a565b61125e82828561119a565b600060209050601f831160018114611291576000841561127f578287015190505b611289858261120b565b8655506112f1565b601f19841661129f8661107b565b60005b828110156112c7578489015182556001820191506020850194506020810190506112a2565b868310156112e457848901516112e0601f8916826111ed565b8355505b6001600288020188555050505b505050505050565b600060408201905081810360008301526113138185610f6c565b905081810360208301526113278184610f6c565b90509392505050565b7f4e487b7100000000000000000000000000000000000000000000000000000000600052603260045260246000fd5b7f4e487b7100000000000000000000000000000000000000000000000000000000600052601160045260246000fd5b600061139982610c39565b91506113a483610c39565b92508282026113b281610c39565b915082820484148315176113c9576113c861135f565b5b5092915050565b7f4e487b7100000000000000000000000000000000000000000000000000000000600052601260045260246000fd5b600061140a82610c39565b915061141583610c39565b925082611425576114246113d0565b5b828204905092915050565b600061143b82610c39565b915061144683610c39565b925082820390508181111561145e5761145d61135f565b5b92915050565b600061146f82610c39565b915061147a83610c39565b92508282019050808211156114925761149161135f565b5b9291505056fea26469706673582212208bf0f5a27fad3dbe09fcd1b33dcee254716f4ed557c0eef57b7bb7ed6bf85a6c64736f6c63430008180033",
  "linkReferences": {},
  "deployedLinkReferences": {}
}